:020000040000FA
:060000000219FD0206FDDD
:03000B0002036687
:0300130002070AD7
:03001B0002046B71
:03002B000203B617
:03005B0002071980
:030073000203EB9A
:1000C0000406080C10182030406080A0C09000D1B9
:1000D0007301F101FE210E211E212B213B2148211C
:1000E0005B216B217E2188219821A521BB21C8217C
:1000F000DBA6F008A67108A66F08856FF022A6F0AF
:1001000008A66F08A67008A66F08856FF022E57034
:10011000B5F002E571F608A67108856FF022A6F029
:1001200008A66F08A67108856FF022A6F008A670D1
:1001300008A66F08A66F08856FF022A6F008A670C3
:1001400008A67008856FF022E570B5F002E571F63B
:1001500008A66F08A67008856FF022A6F008A66FA3
:1001600008A66F08A67008856FF022E570B5F0024A
:10017000E571F608A67008A66F08856FF022A6F054
:1001800008A671088570F022E570B5F002E571F6F9
:1001900008A670088570F022A6F008A66F08A67061
:1001A000088570F022E570B5F002E571F608A66FDB
:1001B00008A66F08A66F08856FF022A6F008A67043
:1001C00008A66F088570F022E570B5F002E571F6BB
:1001D00008A66F08A66F088570F022A6F008A66F23
:1001E00008A66F08A66F088570F022C283C0D0C031
:1001F000E0740FD5E0FDD0E0D0D0D283C0D0C0E015
:100200007405D5E0FDD0E0D0D022C283C0D0C0E0DC
:100210007405D5E0FDD0E0D0D0D283C0D0C0E0746A
:100220000FD5E0FDD0E0D0D022C0D0C0E0C0F0C2F9
:10023000A8C28CD28375A40CC0D0C0E07405D5E0F0
:10024000FDD0E0D0D075F00830E70431EB800251EA
:100250000A23D5F0F375A404D283C0D0C0E074148F
:10026000D5E0FDD0E0D0D0D28C758A00758C00C26C
:1002700089D2A8D0F0D0E0D0D022C0D0C0E0C0F069
:10028000D28375A40CC0D0C0E07405D5E0FDD0E0E9
:10029000D0D075F00830E70431EB8002510A23D545
:1002A000F0F375A404D283C0D0C0E07414D5E0FD8F
:1002B000D0E0D0D0D0F0D0E0D0D022E529A2473392
:1002C000F52875290F8075E529A24733A24633F535
:1002D0002875290D8066E529A24733A24633A24539
:1002E00033F52875290B8054E52854F0C24C452974
:1002F000C4F5287529098044E528A24813A24913AA
:10030000A24A13F5287529078032E528A24813A2CE
:100310004913F5287529058023E528A24813F528F7
:100320007529038017204F93204E9C204DA8204C08
:10033000B7204BC4204AD32049DFE528C46528658F
:1003400029F478D0856FF023541E11CDE52823546D
:100350001E11CDE528C423541E11CDE52923541EBA
:1003600011CDA6F008220540203B0132C0D0C0E0EC
:1003700075D01018B8CF3620830BD283856F8A08CA
:10038000D0E0D0D03275A404D283C23B758E0C75F8
:1003900089AAC2A9C289C28B758A00758C00758230
:1003A00000D2A8D2AA43E610D0E0D0D032B28386E1
:1003B0008AD0E0D0D032C0D0C0E0C2CF0541E566DF
:1003C0006009E5656005756500801B756501E523BD
:1003D00060021523C3E55460057555008008055576
:1003E000E55570021555D0E0D0D032C2AF53E67F4C
:1003F0007592FA7593FFC22053917FD2AF32C0D06D
:1004000075D010E52B7004E52A601EE52AA258136A
:10041000F528A259132528F528E52B03C2E7F5296D
:1004200003C2E73529F52980067528FF7529FF7174
:1004300025758AFF758E097589A2C28DD23BD2A916
:10044000D28375A40CD0D0320522E5227002152289
:10045000C3E52294325002815E7554008161752398
:100460000AD0F0D0E0D0D043E61032C2AFC2A853D9
:10047000E6EFC28E856B8BC0D0C0E0C0F075D008AF
:10048000C2CAA8CCA9CDD2CAD2AF758A00C3E8959A
:100490006CF8E9956DF9C3E913F9E813F8E56660BE
:1004A00007C3E913F9E813F8E97025E8956E4020D1
:1004B000956E501CE582B410177C007B007A0079A1
:1004C00008900000A86AE5667004C3E813F881D9B3
:1004D000900000D2A8D2AA8148E0FDC39CC39840F6
:1004E000EF98EB33FB0582E0FCC39DC39840E19895
:1004F000EB33FB0582E0FDC39CC39840D398EB33FC
:10050000FB0582E0FCC39DC39840C598EB33FB0517
:1005100082E0FDC39CC39840B798EB33FB0582E0B3
:10052000FCC39DC39840A998EB33FB0582E0FDC353
:100530009CC398409B98EB33FB0582E0FCC39DC3B2
:1005400098408D98EB33FB0582A154900000D2A80F
:10055000D2AA8148E0FDC39CC39840EF98EA33FAE1
:100560000582E0FCC39DC39840E198EA33FA058216
:10057000E0FDC39CC39840D398EA33FA0582E0FCBF
:10058000C39DC39840C598EA33FA0582E0FDC39C39
:10059000C39840B798EA33FA0582E0FCC39DC3983C
:1005A00040A998EA33FA0582E0FDC39CC398409BBA
:1005B00098EA33FA0582E0FCC39DC398408D98EA1F
:1005C00033FA0582EBC46B6A54F0F9EAC4303701A0
:1005D000F454F0C3996009900000D2A8D2AA8148CF
:1005E00030370271FEEBF4C454F0F9EAF4C4540F4E
:1005F00049FAEBF4C4540FFBC3EAF99460FAEB94A4
:1006000000FB5020C3E97B007A0079006016C31319
:100610005006F9C39552600AE9F552755300790006
:1006200080020553303A27C3EA94D0F8EB9407F9D7
:10063000400BE8FAE9FB203509D235C142303502DA
:10064000C235203902B235C3EA33FAEB33FBEB2B68
:100650003B3BF9C3EB13FBEA13FAEA29FAEB34004C
:10066000FB30E3047AFF7BFFE5255403601B202A5F
:1006700018E55D33F9EB7007C3E99A4002E9FAE542
:100680003CC4332AFAEB3400FBC3EA33C4540FF8FA
:10069000EB33C454F048F87005EA60027801D522C3
:1006A0000205228854D230E86003755500C3E55B2B
:1006B000FC955C4002AC5CC3EC95545008EC75F0C2
:1006C00008A4FAABF0EAF4F8EBF45407F988568979
:1006D0005775230AE55A30E20853F7DF43F74080A5
:1006E0000853D8FE43DA01800020370A900000D278
:1006F000A8D2AA43E610D0F0D0E0D0D032C0E08536
:100700006B8BE58AF00582D0E032C2AAD28EC2CAD3
:1007100085CC6C85CD6DD2CA32C2AFC0D0C0E07579
:10072000D0088556FB8557FC85575A53F7BF53DAD7
:10073000FE53E6EF53F7DF53D8FED0E0D0D0D2AF70
:10074000327901801479038010790A800C791E8037
:10075000087964800479C880007817E4D5E0FDD872
:10076000FAD9F62278FF20282879A1E76023E54806
:10077000601F74FF8548F084853FF030290375F0D1
:1007800005A4F8C5F0600278FFC3E8955D5002A8A3
:100790005D885C22C3E54794A0E5489400E55C5081
:1007A0000314E1A5046002F55C2275E89022055E61
:1007B000C3E55E9408405330EDF4A8BDA9BE755E54
:1007C00000E9FA79A0E76041EA7006E55F60188009
:1007D0000CC3E8955F600EE55F5005600A14800762
:1007E0000460FA8002E55FF55FC39569401B755BA5
:1007F000C0C394044013755B80C39404400B755BC5
:1008000040C394044003755B0022E55B2410500252
:1008100074FFF55B22743279A687F0A4C5F0A2F7C5
:1008200033F55D227547007548F022C2AFC2CAA8F1
:10083000CCA9CDAA4130CF010AD2CAD2AFC3EA13A4
:10084000FAE913F9E813F8AB42AC4388428943C391
:10085000E89BF8E99C20280A547FF9302C022149B2
:100860008040AD448A44F9EA9D547FFA600678FFDF
:1008700079FF8013AE45AF468B458C46A842A9430D
:10088000C3E89EF8E99FF9C3E54813FBE54713FA6F
:10089000E82AF547E93BF54850087547FF7548FFDA
:1008A000804DAA47AB48AC47AD487E047F02C3EBFE
:1008B0009404400D1E1FC3EB940840052029021E1E
:1008C0001FC3ED13FDEC13FCDEF7C3EA9CFAEB9DAE
:1008D000FBEF6009C3E913F9E813F8DFF7EA28FA38
:1008E000EB39FB8A478B4850067BFF8B478B48C30D
:1008F000EB94025002D22C3028047F03801C7892A3
:10090000E6FFC3E53D948240110FC3E53D94A0404E
:10091000010FC3EF940640027F057E02E548C454F0
:100920000FF9E548C454F0F8E547C4540F28F8C35C
:10093000E89EFAE99400FB4009C3EA9401EB9400B5
:1009400050047A01E4FB020995AA47AB48EBC4FEC8
:10095000EAC4540F4EFCC3EA9CFAEB9400FBC3E8D4
:1009600013C313F8EA28FAEB3400FB8A478B48C319
:10097000EB94024002C22C7802EBC4FE7B00EAC476
:10098000540F4EFAC3EA98FA4005C3940150027A14
:10099000017892E6FFC2AF85472A85482BD2AF3057
:1009A00020022195854E92854F93D22043E680C345
:1009B000E49AF8E49BF9C3E833F8E933F9302C03FF
:1009C000020A34E8FAE9FBD3E913FDE813FC884E88
:1009D000894FC3EF94036038EF20E00CE82CF8E96E
:1009E0003DF9ECFAEDFB8013E828F8E939F9C3E8A2
:1009F0002401F8E93400F97AFF7BFFC3EF94034048
:100A00000F8A508B51884A894B8C4C8D4D020A6954
:100A1000885089518A4A8B4B8C4C8D4D30281275E9
:100A200050F07551FF754CF0754DFF754EF0754FD8
:100A3000FF020A69E8FAD3E813FC884EC3EF940377
:100A40006021EF20E007E82CF8ECFA4154E8282474
:100A500001F87AFFC3EF940340098A50884A8C4C0E
:100A6000020A6988508A4A8C4C3020024169753AE2
:100A700002D22043E680E5255403602DA847A9480B
:100A8000C3E913F9E813F8302804E92440F9C2AFA8
:100A900053E67F759100C3E498F594E499F5957554
:100AA0009104D22043E680D2AF22D221754900754D
:100AB0002000302B0375204041C8D22175490075B4
:100AC0002040302B0375200078017901202C20E58F
:100AD0002554036002C2217914E548C31370010450
:100AE000F8C3941440027814302804781B791BC38F
:100AF000E833F8C3E933F9202010E549600C3028C9
:100B000003D53A04D222617B51710549E59B5440DB
:100B1000B52002616530280908C3E89940011841F1
:100B2000F720210A08C3E899400241C841F7C221D1
:100B300053E67F759100302C117594007595F07512
:100B40009104D22043E680020AC8E5487EFFC33301
:100B50004009C3334005C3334001FEC3E49E75948E
:100B600000F595613FC3E5399401500241C8302139
:100B70000241C8D802617941F7C222C2AF53E67F71
:100B8000759100855094855195759104854A92859B
:100B90004B93D22043E680D2AFE525540360072073
:100BA00029020539801030220D202B0A202107153B
:100BB0008115810215CB2278003021027801E53DB4
:100BC00075F007A4F9E5F028F5F0E9A2F013A2F119
:100BD00013A2F213F53DC394785003753D78C3E535
:100BE0003D953E4009C294C295C29675D57F30208E
:100BF0000261EE854C92854D93D22043E6802220FF
:100C00003814C2AFC295C291D294D29675D577D21C
:100C1000AF759F4581FFC2AFC295C293D296D29461
:100C200075D57DD2AF759F4581FF203814C2AFC204
:100C300096D29575D57BC291D294D2AF759F6581BE
:100C4000FFC2AFC294D29575D57BC293D296D2AF74
:100C5000759F7581FF203814C2AFC294C293D2969B
:100C6000D29575D57BD2AF759F7581FFC2AFC29605
:100C7000C291D294D29575D57BD2AF759F6581FF15
:100C8000203814C2AFC295D29475D57DC293D29646
:100C9000D2AF759F458068C2AFC295D29675D577A1
:100CA000C291D294D2AF759F458054203814C2AF00
:100CB000C296C292D295D29475D57DD2AF759F65FA
:100CC000803DC2AFC294C292D295D29675D577D2EA
:100CD000AF759F758029203814C2AFC294D2967523
:100CE000D577C292D295D2AF759F758012C2AFC22E
:100CF00096D29475D57DC292D295D2AF759F65225A
:100D00007A147B7880127A107B8C800C7A0D7BB4FD
:100D100080067A0B7BC88000E564D5E00122790269
:100D2000E4C295D5E0FDD292D295D5E0FDC295D52D
:100D3000E0FDC292D295D5E0FDE920E004D291D247
:100D40009430E004D293D296E564D5E0FDE920E04A
:100D500002C29430E002C2967496D5E0FDD9C1EA91
:100D6000F8D5E0FDD8FBDBB0C29522C294C295C293
:100D700096C294C295C29675D57F22788076FF0878
:100D800076FF0876FF0876FF0876FF0876FF08767C
:100D9000090876FF087601788C76010876FF0876D8
:100DA000FF0876FF0876FF0876FF0876030876FFCF
:100DB0000876FF0876FF0876250876D0087628089A
:100DC00076500876040876FF0876020876FF0876E3
:100DD0007A0876FF0876070876010876FF0876FF1E
:100DE00008760008760022FA75F00CA4ABF0EAC38E
:100DF00033F8740133F9E8C333F8E933F9E8C32B66
:100E0000F8E93400F9E8C333F8E933F9227888E6E1
:100E1000C39403D23A5002C23AC238E630E102D259
:100E200038A23892397886E6149000C09378A6F6F6
:100E30007886E6F53FC394025003753F02789CE63E
:100E4000753EFFB40203753EA0B40303753E82787D
:100E5000A0E6F8600674282409D8FCF5697896E6BF
:100E6000B1E788318932789EE6B1E78833893478F2
:100E700097E6B1E788358936B16B223036117A00B2
:100E80007B007CFF7D007E00D1E18B618A60223097
:100E90003A227896E6FA7B00789EE6FC7D00C3EA6B
:100EA00033FAEB33FBC3EC33FCED33FD7E0AD1E1C7
:100EB0008B638A627896303A02789EE6FA7B0078F5
:100EC00097E6FC7D007E00303A10C3EA33FAEB333C
:100ED000FBC3EC33FCED33FD7E0AD1E18B618A600C
:100EE00022C3EC9EFCED9400FDC3EC9AFCED9BFD4F
:100EF000C3EC9423ED940050047C237D00C3EC9458
:100F0000FFED940140047CFF7D017BFF0B7A000A1A
:100F1000EA7009C3EC33FCED33FD80F0EC8AF0A4F9
:100F2000AEF0ED8AF0A42E947C40E4EAF460DD2279
:100F3000D236D17B12074D12074D7A007B007C1010
:100F4000120745E5542AFA74003BFBDCF37C04C32A
:100F5000EB13FBEA13FADCF7FFEB60027FFFC2360C
:100F6000D17B2278A5E6F95403D2827002C282E9CD
:100F7000540C7000E954307000E954C070002275C0
:100F80008851758E0C7589AA758C00758D00758ECB
:100F90000C756B80756A10756E14756FFF7570EC4B
:100FA0007571DD22758851758E0C7589AA758C0056
:100FB000758D00758E0C756B00756A20756E2875C1
:100FC0006FEC7570CD7571AF22C0E074142083177B
:100FD000C0D0C0E0740AD5E0FDD0E0D0D02083EBD3
:100FE000D5E0EDC3D0E022C0D0C0E0740AD5E0FD6A
:100FF000D0E0D0D03083D4D5E0EDD3D0E0227567F7
:10100000007568007597DE7597AD7581AF43FF80F9
:1010100075EF0675A900120D6B7580FB75F10F75E4
:10102000A4047580FB75D4FF75900075F27E75A5DC
:101030007E75900075D57F75A60175E34075E20257
:10104000120D6BE4F8F6D8FD120D7BD10578988669
:1010500064753001C2AF120755120D0012074D1210
:101060000D0612074D120D0C12074D120F63C2AF81
:1010700075670075680078FA79FA308316D9FBD85D
:10108000F775A91375A71075C10075A700756600DF
:10109000021C00120E0D120E7B78988664120D6BE6
:1010A00075A71075C13075A70075A9037566017520
:1010B000C80475910475D84075D90875F783759E75
:1010C0000075960275DA4A75DB0075A82375E690FF
:1010D00075B803759B80759D0075D10C75BCB9758D
:1010E000BB1075E88075B201120741753C00C23033
:1010F000120755C231C232C233C234755200755321
:1011000000D234120FC99237C23B752A00752B00EA
:1011100075E4B330370375E43B120F7FC2A9D2AB3D
:10112000D2AAD2AF75220A12075175520075530028
:10113000C3E522940A4018120FA475220A1207511F
:10114000755200755300C3E522940A4002016E12E5
:10115000074520300302106EC2AF120D00120D00C1
:10116000120D00D2AF120755203403303A03021299
:1011700017120745788CE6C3940150024117E530F9
:10118000C39401500241177567A57568F17F02D2BB
:1011900036120E7B120751C2AFC236120E7BC3E568
:1011A00054947FD2AF4070120741C2AF120D12D2D9
:1011B000AFDFDC120F30C3EF7897F6120755D1F28C
:1011C0007F0AD236120E7B120751C2AFC236120E00
:1011D0007BC3E554947FD2AF50E6120741C2AF12F1
:1011E0000D00120749120D00D2AFDFD6120F30EFFB
:1011F00024037896F6F87997E7C394234003985030
:1012000006E824237897F6120755D14CF1211207EE
:1012100051120E7B02106E7567007568001207513F
:10122000C3E554940140022168C2AF120D12120DA1
:1012300012120D12D2AF120755753000752A0075C3
:101240002B00E4F537F5380537E537F4703F0538FE
:10125000789AE67819146012783214600D787D144B
:10126000600878FA146003753800C3E53898401DAB
:10127000120D6B120741153875370078998664C2D4
:10128000AF120D12D2AF7898866412075112074937
:10129000E5237002016EC3E5549401500AC3E55280
:1012A00094015016021247120751E52370030210F1
:1012B0006E75520075530002145CC3E552940170C0
:1012C00017C2AF120D6B78998664120D007898865C
:1012D00064D2AF120751814EC3E55294027017C217
:1012E000AF120D6B78998664120D0678988664D2D9
:1012F000AF120751814EC3E55294037017C2AF126B
:101300000D6B78998664120D0C78988664D2AF12B2
:101310000751814EC3E55294047017C2AF120D6B92
:1013200078998664120D1278988664D2AF120751AC
:10133000814EC3E55294057017C2AF120D6B7899B8
:101340008664120D1278988664D2AF120751814ECE
:10135000C3E55294077019C3E553940650024196B1
:101360007401303A0274037888F6C238C239814E6B
:10137000C3E55294087019C3E55394065002419690
:101380007402303A0274047888F6D238D239814E29
:10139000C3E55294097017C3E55394065002419671
:1013A000303A0BC37888E69402F6C23A814EC3E520
:1013B00052940A7016C3E553940650024196203A9F
:1013C0000A7888E62402F6D23A814EC3E552941494
:1013D0007025C3E553940650024196C2AF901A0B94
:1013E000740093D2AF7888F613C238C2394002D263
:1013F000384002D2398057C3E55294157038C3E59E
:10140000539406404FC2AF901A0B740093D2AFF8BA
:10141000B801027402B802027401B803027404B87D
:10142000040274037888F613C238C2394002D238F5
:101430004002D2398018C3E552940C70117567A52B
:101440007568F1C3E5539406400AD14CD2AF75528A
:10145000007553007567007568004196C2AF120DA4
:101460006BE4D2AFE4F55EF524F525F53D755E0835
:101470001207411207AA30EDFDA8BDA9BEE970010F
:10148000F8885F1207AE755E08C2AF120815855D59
:101490005B855D5CD2AF75A71075C13075A700750F
:1014A000A903756601303A07C238303502D238D206
:1014B00028753900120CAB120CD612082412082B16
:1014C00012082412082B120824120ABA120BB7129F
:1014D0000BFF12082B120AAA202C03120764302CCF
:1014E00003120794120BB7120C2A12082B120ABA15
:1014F000120BB7120C5512082B120AAA120BB712B4
:101500000C8012082B120ABA120BB7120CAB12087D
:101510002B1207AA120AAA120BB7120CD61207AE88
:1015200012082B302827855D5B79187A0CC3E539C2
:1015300099400EC228D2298A3B855D5B855D5C801F
:101540000CC3E554940140030214C9A1D330291FF0
:10155000202B1CE53B147006C229D22A81C9F53B19
:10156000203A07C3E554940140030214C98064750E
:101570003C00203A0F78FA79A4E760027803C3E5CB
:101580005598504FE523604B303A172038052035E9
:1015900007800F303502800A202B07D22B855D5B38
:1015A00081F978F0302B05855D5B7820C3E548989C
:1015B00050030214C9302B1BC22BC238303502D263
:1015C00038D229753B12855D5B81C9053CE55460C5
:1015D00002A1D6753C00C2AF120D6B752500D2AFCB
:1015E000120751120D6B75240078A4E6600CC291AD
:1015F000D294C292D295C293D296C3E53C94044051
:1016000002016E413C901A0D7820D185E520B45539
:101610000AA3D185E520B4AA0280137567A5756871
:10162000F1120D7BD14C756700756800801D901A12
:101630000378807B0AD185A308DBFA901A0F788C97
:101640007B1AD185A308DBFA901A2922C2AFD1C830
:10165000D1A5901A007410D18AA37447D18AA374BB
:1016600021D18A901A0378807B0AD189A308DBFAFA
:10167000901A0F788C7B1AD189A308DBFAD1DBD1C1
:10168000B9901A2922E493F622E6438F01538FFD85
:10169000FFC3E583941C400122EF8567B78568B7D7
:1016A000F0538FFE22438F02438F018567B7856811
:1016B000B7901A0DF0538FFC22901A0D7455D18AF1
:1016C000901A0E74AAD18A227A3079D07820901A92
:1016D00040D185E520F709A3DAF7227A3079D09056
:1016E0001A40E7D18A09A3DAF9227C05120755DCF2
:1016F000FB22C2AF120D00120D06120D0C120D12BC
:10170000120749120D00120D06120D0C120D1212C5
:101710000749120D00120D06120D0C120D12D2AF58
:1017200022C2AF120D12120D0C120D06120D001274
:101730000749120D12120D0C120D06120D001207A0
:1017400049120D12120D0C120D06120D00D2AF220D
:1019FD00020FFE104721FFFFFFFFFFFF09FF01FF51
:101A0D0055AA01FFFFFFFFFF03FFFFFF25D0285061
:0D1A1D0004FF02FF7AFF0701FFFF0000FF3A
:101A4000234D5F485F30302320202020202020209D
:101A500023424C48454C492445464D3842323123B7
:101A60002020202020202020202020202020202076
:101C0000C2AFC2D37597DE7597AD7581C075A90057
:101C100043FF80752438752503B1DB7529A5752A26
:101C2000F143F10853A4F7D28375D4FF75E3407DE7
:101C3000FA780379E67C10752200752300901DE880
:101C40007B0675249875250130830281482083081E
:101C5000D8FBD9F9DCF781BA308308D8FBD9F9DC95
:101C6000F781BAB19BE493A3C39A6004DDC381BA40
:101C7000DBDBB18D600281317B08E493FAA3B16EA6
:101C8000DBF87A30B16E752200752300B18DEAFC65
:101C9000EBFDC3ED94FE400EB18D8A278B28ED300D
:101CA000E0048A828B83B18D7AC270D8C3ED94FE32
:101CB000601950CEBD0029EC600F7520007521FF22
:101CC000752900752A000200008100A827A92808AC
:101CD00009D804D90281DDB191EAF281D10D81A642
:101CE000C3ED94035051EDA2E092007AC5C3E582A2
:101CF0009400E583941C508C200010438F02438F86
:101D0000018529B7852AB7F0300027A827A9280818
:101D100009438F01538FFDD804D902A132C3E58353
:101D2000941C4003A3A117E28529B7852AB7F0A325
:101D3000A117538FFC81827AC1BD030CE493A3FAEF
:101D4000B152DCF8B14A81828184AA22AB23B16E00
:101D5000EBFAEA6222752608C3E52313F523E52290
:101D600013F52250066323A0632201D526EAB1DBD6
:101D7000B1DB75260AEAF4200102D283300102C2E7
:101D800083B1DBC3134002C201D526EB22B191EA35
:101D9000FB208302A191308302A196752608AE2410
:101DA000AF25C3EF13FFEE13FEB1DFB1DBC3EA13C0
:101DB0003083024480FA30E703632201C3E5231332
:101DC000F523E52213F52250066323A0632201D5F3
:101DD00026D9E52265236523F52222AE24AF250E00
:101DE0000FDEFEDFFCD20122424C48656C693437BD
:061DF0003164E8B20601B7
:00000001FF
