:020000040000FA
:060000000219FD020703D6
:03000B0002036687
:03001300020710D1
:03001B0002046B71
:03002B000203B617
:03005B0002071F7A
:030073000203EB9A
:1000C0000406080C10182030406080A0C09000D1B9
:1000D0007301F101FE210E211E212B213B2148211C
:1000E0005B216B217E2188219821A521BB21C8217C
:1000F000DBA6F008A67108A66F08856FF022A6F0AF
:1001000008A66F08A67008A66F08856FF022E57034
:10011000B5F002E571F608A67108856FF022A6F029
:1001200008A66F08A67108856FF022A6F008A670D1
:1001300008A66F08A66F08856FF022A6F008A670C3
:1001400008A67008856FF022E570B5F002E571F63B
:1001500008A66F08A67008856FF022A6F008A66FA3
:1001600008A66F08A67008856FF022E570B5F0024A
:10017000E571F608A67008A66F08856FF022A6F054
:1001800008A671088570F022E570B5F002E571F6F9
:1001900008A670088570F022A6F008A66F08A67061
:1001A000088570F022E570B5F002E571F608A66FDB
:1001B00008A66F08A66F08856FF022A6F008A67043
:1001C00008A66F088570F022E570B5F002E571F6BB
:1001D00008A66F08A66F088570F022A6F008A66F23
:1001E00008A66F08A66F088570F022C283C0D0C031
:1001F000E0740FD5E0FDD0E0D0D0D283C0D0C0E015
:100200007405D5E0FDD0E0D0D022C283C0D0C0E0DC
:100210007405D5E0FDD0E0D0D0D283C0D0C0E0746A
:100220000FD5E0FDD0E0D0D022C0D0C0E0C0F0C2F9
:10023000A8C28CD28375A40CC0D0C0E07405D5E0F0
:10024000FDD0E0D0D075F00830E70431EB800251EA
:100250000A23D5F0F375A404D283C0D0C0E074148F
:10026000D5E0FDD0E0D0D0D28C758A00758C00C26C
:1002700089D2A8D0F0D0E0D0D022C0D0C0E0C0F069
:10028000D28375A40CC0D0C0E07405D5E0FDD0E0E9
:10029000D0D075F00830E70431EB8002510A23D545
:1002A000F0F375A404D283C0D0C0E07414D5E0FD8F
:1002B000D0E0D0D0D0F0D0E0D0D022E529A2473392
:1002C000F52875290F8075E529A24733A24633F535
:1002D0002875290D8066E529A24733A24633A24539
:1002E00033F52875290B8054E52854F0C24C452974
:1002F000C4F5287529098044E528A24813A24913AA
:10030000A24A13F5287529078032E528A24813A2CE
:100310004913F5287529058023E528A24813F528F7
:100320007529038017204F93204E9C204DA8204C08
:10033000B7204BC4204AD32049DFE528C46528658F
:1003400029F478D0856FF023541E11CDE52823546D
:100350001E11CDE528C423541E11CDE52923541EBA
:1003600011CDA6F008220540203B0132C0D0C0E0EC
:1003700075D01018B8CF3620830BD283856F8A08CA
:10038000D0E0D0D03275A404D283C23B758E0C75F8
:1003900089AAC2A9C289C28B758A00758C00758230
:1003A00000D2A8D2AA43E610D0E0D0D032B28386E1
:1003B0008AD0E0D0D032C0D0C0E0C2CF0541E566DF
:1003C0006009E5656005756500801B756501E523BD
:1003D00060021523C3E55460057555008008055576
:1003E000E55570021555D0E0D0D032C2AF53E67F4C
:1003F0007592FA7593FFC22053917FD2AF32C0D06D
:1004000075D010E52B7004E52A601EE52AA258136A
:10041000F528A259132528F528E52B03C2E7F5296D
:1004200003C2E73529F52980067528FF7529FF7174
:1004300025758AFF758E097589A2C28DD23BD2A916
:10044000D28375A40CD0D0320522E5227002152289
:10045000C3E52294325002815E7554008161752398
:100460000AD0F0D0E0D0D043E61032C2AFC2A853D9
:10047000E6EFC28E856B8BC0D0C0E0C0F075D008AF
:10048000C2CAA8CCA9CDD2CAD2AF758A00C3E8959A
:100490006CF8E9956DF9C3E913F9E813F8E56660BE
:1004A00007C3E913F9E813F8E97025E8956E4020D1
:1004B000956E501CE582B410177C007B007A0079A1
:1004C00008900000A86AE5667004C3E813F881D9B3
:1004D000900000D2A8D2AA8148E0FDC39CC39840F6
:1004E000EF98EB33FB0582E0FCC39DC39840E19895
:1004F000EB33FB0582E0FDC39CC39840D398EB33FC
:10050000FB0582E0FCC39DC39840C598EB33FB0517
:1005100082E0FDC39CC39840B798EB33FB0582E0B3
:10052000FCC39DC39840A998EB33FB0582E0FDC353
:100530009CC398409B98EB33FB0582E0FCC39DC3B2
:1005400098408D98EB33FB0582A154900000D2A80F
:10055000D2AA8148E0FDC39CC39840EF98EA33FAE1
:100560000582E0FCC39DC39840E198EA33FA058216
:10057000E0FDC39CC39840D398EA33FA0582E0FCBF
:10058000C39DC39840C598EA33FA0582E0FDC39C39
:10059000C39840B798EA33FA0582E0FCC39DC3983C
:1005A00040A998EA33FA0582E0FDC39CC398409BBA
:1005B00098EA33FA0582E0FCC39DC398408D98EA1F
:1005C00033FA0582EBC46B6A54F0F9EAC4303701A0
:1005D000F454F0C3996009900000D2A8D2AA8148CF
:1005E00030370271FEEBF4C454F0F9EAF4C4540F4E
:1005F00049FAEBF4C4540FFBC3EAF99460FAEB94A4
:1006000000FB5020C3E97B007A0079006016C31319
:100610005006F9C39552600AE9F552755300790006
:1006200080020553303A27C3EA94D0F8EB9407F9D7
:10063000400BE8FAE9FB203509D235C142303502DA
:10064000C235203902B235C3EA33FAEB33FBEB2B68
:100650003B3BF9C3EB13FBEA13FAEA29FAEB34004C
:10066000FB30E3047AFF7BFFE5255403601B202A5F
:1006700018E55D33F9EB7007C3E99A4002E9FAE542
:100680003CC4332AFAEB3400FBC3EA33C4540FF8FA
:10069000EB33C454F048F87005EA60027801D522C3
:1006A0000205228854D230E86003755500C3E55B2B
:1006B000FC955C4002AC5CC3EC95545008EC75F0C2
:1006C00008A4FAABF0EAF4F8EBF45407F9C3E894A1
:1006D00014FAE99400FB50047A007B00885689578D
:1006E0008A588B5975230A53F7DF43F7408000205F
:1006F000370A900000D2A8D2AA43E610D0F0D0E08A
:10070000D0D032C0E0856B8BE58AF00582D0E03234
:10071000C2AAD28EC2CA85CC6C85CD6DD2CA32C275
:10072000AFC0D0C0E075D008A8F9E55A30E20AE5BC
:10073000FA20E22E20E12B8008E5FA30E22420E1C5
:1007400021C3E55713F8E55613F5FB88FCC3E559BB
:1007500013F8E55813F5E988EA85575A53F7BF535C
:10076000E6EF53F7DFD0E0D0D0D2AF32790180147A
:1007700079038010790A800C791E800879648004DE
:1007800079C880007817E4D5E0FDD8FAD9F6227848
:10079000FF20282879A1E76023E548601F74FF85C2
:1007A00048F084853FF030290375F005A4F8C5F0C2
:1007B000600278FFC3E8955D5002A85D885C22C3A3
:1007C000E54794A0E5489400E55C500314E1D004AB
:1007D0006002F55C2275E89022055EC3E55E940830
:1007E000405330EDF4A8BDA9BE755E00E9FA79A0CA
:1007F000E76041EA7006E55F6018800CC3E8955F2A
:10080000600EE55F5005600A1480070460FA8002FC
:10081000E55FF55FC39569401B755BC0C3940440F9
:1008200013755B80C39404400B755B40C394044014
:1008300003755B0022E55B2410500274FFF55B2218
:10084000743279A687F0A4C5F0A2F733F55D22755E
:1008500047007548F022C2AFC2CAA8CCA9CDAA41B0
:1008600030CF010AD2CAD2AFC3EA13FAE913F9E8CA
:1008700013F8AB42AC4388428943C3E89BF8E99C38
:1008800020280A547FF9302C0221748040AD448A1C
:1008900044F9EA9D547FFA600678FF79FF8013AE31
:1008A00045AF468B458C46A842A943C3E89EF8E96C
:1008B0009FF9C3E54813FBE54713FAE82AF547E932
:1008C0003BF54850087547FF7548FF804DAA47AB78
:1008D00048AC47AD487E047F02C3EB9404400D1E34
:1008E0001FC3EB940840052029021E1FC3ED13FD12
:1008F000EC13FCDEF7C3EA9CFAEB9DFBEF6009C347
:10090000E913F9E813F8DFF7EA28FAEB39FB8A472D
:100910008B4850067BFF8B478B48C3EB94025002F9
:10092000D22C3028047F03801C7892E6FFC3E53D7B
:10093000948240110FC3E53D94A040010FC3EF9492
:100940000640027F057E02E548C4540FF9E548C41D
:1009500054F0F8E547C4540F28F8C3E89EFAE99428
:1009600000FB4009C3EA9401EB940050047A01E4CF
:10097000FB0209C0AA47AB48EBC4FEEAC4540F4EC1
:10098000FCC3EA9CFAEB9400FBC3E813C313F8EA38
:1009900028FAEB3400FB8A478B48C3EB94024002F1
:1009A000C22C7802EBC4FE7B00EAC4540F4EFAC39B
:1009B000EA98FA4005C3940150027A017892E6FF62
:1009C000C2AF85472A85482BD2AF30200221C0858F
:1009D0004E92854F93D22043E680C3E49AF8E49B7D
:1009E000F9C3E833F8E933F9302C03020A5FE8FA77
:1009F000E9FBD3E913FDE813FC884E894FC3EF945C
:100A0000036038EF20E00CE82CF8E93DF9ECFAED52
:100A1000FB8013E828F8E939F9C3E82401F8E93440
:100A200000F97AFF7BFFC3EF9403400F8A508B518C
:100A3000884A894B8C4C8D4D020A94885089518A82
:100A40004A8B4B8C4C8D4D3028127550F07551FFF0
:100A5000754CF0754DFF754EF0754FFF020A94E826
:100A6000FAD3E813FC884EC3EF94036021EF20E033
:100A700007E82CF8ECFA417FE8282401F87AFFC354
:100A8000EF940340098A50884A8C4C020A9488509B
:100A90008A4A8C4C3020024194753A02D22043E6B7
:100AA00080E5255403602DA847A948C3E913F9E858
:100AB00013F8302804E92440F9C2AF53E67F75915A
:100AC00000C3E498F594E499F595759104D2204318
:100AD000E680D2AF22D221754900752000302B0369
:100AE00075204041F3D221754900752040302B0319
:100AF00075200078017901202C20E525540360023F
:100B0000C2217914E548C313700104F8C39414405A
:100B1000027814302804781B791BC3E833F8C3E942
:100B200033F9202010E549600C302803D53A04D26F
:100B30002261A6519C0549E59B5440B52002619075
:100B400030280908C3E899400118612220210A08C9
:100B5000C3E899400241F36122C22153E67F7591B7
:100B600000302C117594007595F0759104D22043D6
:100B7000E680020AF3E5487EFFC3334009C33340F1
:100B800005C3334001FEC3E49E759400F595616A88
:100B9000C3E5399401500241F330210241F3D802F8
:100BA00061A46122C222C2AF53E67F7591008550D5
:100BB00094855195759104854A92854B93D2204333
:100BC000E680D2AFE525540360072029020539806D
:100BD0001030220D202B0A202107158115810215C6
:100BE000BE2278003021027801E53D75F007A4F9B6
:100BF000E5F028F5F0E9A2F013A2F113A2F213F543
:100C00003DC394785003753D78C3E53D953E40095A
:100C1000C291C292C29375D57F3020028119854C52
:100C200092854D93D22043E68022203810C2AFC275
:100C300095D29475D537D2AF759F4581FAC2AFC2B0
:100C400095D29675D56DD2AF759F4581FA20381033
:100C5000C2AFC29375D55BD294D2AF759F6581FA4E
:100C6000C2AFC29175D55BD296D2AF759F7581FA2E
:100C7000203810C2AFC294D29675D55BD2AF759FA3
:100C8000758077C2AFC296D29475D55BD2AF759F8F
:100C9000658067203810C2AFC29275D56DD296D2EA
:100CA000AF759F458054C2AFC29275D537D294D2EA
:100CB000AF759F458044203810C2AFC296D295755B
:100CC000D56DD2AF759F658031C2AFC294D2957594
:100CD000D537D2AF759F758021203810C2AFC29131
:100CE00075D537D295D2AF759F75800EC2AFC293BE
:100CF00075D56DD295D2AF759F65227A147B7880B9
:100D0000127A107B8C800C7A0D7BB480067A0B7B78
:100D1000C88000E564D5E001227902E4C295D5E0FF
:100D2000FDD292D5E0FDC292D5E0FDD295D5E0FD91
:100D3000E920E002D29130E002D293E564D5E0FDF3
:100D4000E920E002C29130E002C2937496D5E0FD42
:100D5000D9C9EAF8D5E0FDD8FBDBB8C29522C2912B
:100D6000C292C293C294C295C29675D57F227880F2
:100D700076FF0876FF0876FF0876FF0876FF08768C
:100D8000FF0876090876FF087601788C76010876E8
:100D9000FF0876FF0876FF0876FF0876FF087603DF
:100DA0000876FF0876FF0876FF0876250876D008D3
:100DB00076280876500876040876FF0876020876CA
:100DC000FF08767A0876FF0876070876010876FF2E
:100DD0000876FF08760008760022FA75F00CA4ABBE
:100DE000F0EAC333F8740133F9E8C333F8E933F9AF
:100DF000E8C32BF8E93400F9E8C333F8E933F92202
:100E00007888E6C39403D23A5002C23AC238E63038
:100E1000E102D238A23892397886E6149000C09365
:100E200078A6F67886E6F53FC394025003753F0234
:100E3000789CE6753EFFB40203753EA0B4030375CB
:100E40003E8278A0E6F8600674282409D8FCF5698B
:100E50007896E6B1DA88318932789EE6B1DA88335D
:100E600089347897E6B1DA88358936B15E22303632
:100E7000117A007B007CFF7D007E00D1D48B618ADB
:100E80006022303A227896E6FA7B00789EE6FC7D76
:100E900000C3EA33FAEB33FBC3EC33FCED33FD7EE6
:100EA0000AD1D48B638A627896303A02789EE6FA49
:100EB0007B007897E6FC7D007E00303A10C3EA3371
:100EC000FAEB33FBC3EC33FCED33FD7E0AD1D48B5C
:100ED000618A6022C3EC9EFCED9400FDC3EC9AFC99
:100EE000ED9BFDC3EC9423ED940050047C237D0026
:100EF000C3EC94FFED940140047CFF7D017BFF0B6C
:100F00007A000AEA7009C3EC33FCED33FD80F0ECA3
:100F10008AF0A4AEF0ED8AF0A42E947C40E4EAF4CA
:100F200060DD22D236D16E1207781207787A007B04
:100F3000007C10120770E5542AFA74003BFBDCF3C6
:100F40007C04C3EB13FBEA13FADCF7FFEB60027FD0
:100F5000FFC236D16E2278A5E6F95403D282700220
:100F6000C282E9540C7000E954307000E954C0703A
:100F70000022758851758E0C7589AA758C00758D47
:100F800000758E0C756B80756A10756E14756FFF29
:100F90007570EC7571DD22758851758E0C7589AA96
:100FA000758C00758D00758E0C756B00756A2075DB
:100FB0006E28756FEC7570CD7571AF22C0E074143A
:100FC000208317C0D0C0E0740AD5E0FDD0E0D0D0B7
:100FD0002083EBD5E0EDC3D0E022C0D0C0E0740A9E
:100FE000D5E0FDD0E0D0D03083D4D5E0EDD3D0E053
:100FF000227567007568007597DE7597AD7581AFCE
:1010000043FF8075EF0675A900120D5E7580FB75B4
:10101000F10F75A4047580FB75D4FF75900075F20F
:101020007E75A57E75900075D57F75A60175E34028
:1010300075E202120D5EE4F8F6D8FD120D6EB1F203
:1010400078988664753001C2AF120780120CFB12CB
:101050000778120D01120778120D07120778120F88
:1010600056C2AF75670075680078FA79FA30831652
:10107000D9FBD8F775A91375A71075C10075A7001E
:10108000756600021C00120E00120E6E78988664BF
:10109000120D5E75A71075C13075A70075A903758F
:1010A000660175C80475910475D84075D90875F73F
:1010B00082759E0375960275DA4275DB4275A82328
:1010C00075E69075B803759B80759D0075D10C759C
:1010D000BCB975BB1075E88075B20112076C753C20
:1010E00000C230120780C231C232C233C2347552DC
:1010F00000755300D234120FBC9237C23B752A00E0
:10110000752B0075E4B330370375E43B120F72C2E0
:10111000A9D2ABD2AAD2AF75220A12077C755200AF
:10112000755300C3E522940A4018120F9775220ADE
:1011300012077C755200755300C3E522940A4002E1
:101140000161120770203003021061C2AF120CFB64
:10115000120CFB120CFBD2AF120780203403303A82
:101160000302120A120770788CE6C3940150024100
:101170000AE530C394015002410A7567A57568F10C
:101180007F02D236120E6E12077CC2AFC236120E2A
:101190006EC3E554947FD2AF407012076CC2AF1299
:1011A0000D0DD2AFDFDC120F23C3EF7897F61207D5
:1011B00080D1DF7F0AD236120E6E12077CC2AFC218
:1011C00036120E6EC3E554947FD2AF50E612076C10
:1011D000C2AF120CFB120774120CFBD2AFDFD61297
:1011E0000F23EF24037896F6F87997E7C39423400A
:1011F00003985006E824237897F6120780D139F136
:101200000E12077C120E6E02106175670075680081
:1012100012077CC3E55494014002215BC2AF120D5A
:101220000D120D0D120D0DD2AF1207807530007525
:101230002A00752B00E4F537F5380537E537F470EB
:101240003F0538789AE67819146012783214600DE8
:10125000787D14600878FA146003753800C3E538A7
:1012600098401D120D5E12076C153875370078997D
:101270008664C2AF120D0DD2AF7898866412077CD7
:10128000120774E52370020161C3E5549401500A0A
:10129000C3E5529401501602123A12077CE52370FE
:1012A0000302106175520075530002144FC3E552DA
:1012B00094017017C2AF120D5E78998664120CFB10
:1012C00078988664D2AF12077C8141C3E5529402BC
:1012D0007017C2AF120D5E78998664120D0178986E
:1012E0008664D2AF12077C8141C3E5529403701724
:1012F000C2AF120D5E78998664120D0778988664E5
:10130000D2AF12077C8141C3E55294047017C2AF7B
:10131000120D5E78998664120D0D78988664D2AFAE
:1013200012077C8141C3E55294057017C2AF120DBC
:101330005E78998664120D0D78988664D2AF120794
:101340007C8141C3E55294077019C3E5539406505C
:101350000241897401303A0274037888F6C238C2B7
:10136000398141C3E55294087019C3E5539406507E
:101370000241897402303A0274047888F6D238D275
:10138000398141C3E55294097017C3E5539406505F
:10139000024189303A0BC37888E69402F6C23A815A
:1013A00041C3E552940A7016C3E5539406500241B6
:1013B00089203A0A7888E62402F6D23A8141C3E5C8
:1013C0005294147025C3E553940650024189C2AF6C
:1013D000901A0B740093D2AF7888F613C238C239D2
:1013E0004002D2384002D2398057C3E5529415707A
:1013F00038C3E5539406404FC2AF901A0B74009364
:10140000D2AFF8B801027402B802027401B8030244
:101410007404B8040274037888F613C238C23940E1
:1014200002D2384002D2398018C3E552940C7011B0
:101430007567A57568F1C3E5539406400AD139D2A2
:10144000AF7552007553007567007568004189C219
:10145000AF120D5EE4D2AFE4F55EF524F525F53D5F
:10146000755E0812076C1207D530EDFDA8BDA9BE48
:10147000E97001F8885F1207D9755E08C2AF1208DB
:1014800040855D5B855D5CD2AF75A71075C1307519
:10149000A70075A903756601303A07C238303502D6
:1014A000D238D228753900120CB6120CD912084F56
:1014B00012085612084F12085612084F120AE51267
:1014C0000BE2120C2A120856120AD5202C0312071E
:1014D0008F302C031207BF120BE2120C4D1208566C
:1014E000120AE5120BE2120C70120856120AD512FB
:1014F0000BE2120C93120856120AE5120BE2120CC0
:10150000B61208561207D5120AD5120BE2120CD9E0
:101510001207D9120856302827855D5B79187A0C96
:10152000C3E53999400EC228D2298A3B855D5B8587
:101530005D5C800CC3E554940140030214BCA1C659
:1015400030291F202B1CE53B147006C229D22A81AA
:10155000BCF53B203A07C3E554940140030214BC98
:101560008064753C00203A0F78FA79A4E76002782D
:1015700003C3E55598504FE523604B303A172038A8
:1015800005203507800F303502800A202B07D22B2B
:10159000855D5B81EC78F0302B05855D5B7820C341
:1015A000E5489850030214BC302B1BC22BC23830C4
:1015B0003502D238D229753B12855D5B81BC053C72
:1015C000E5546002A1C9753C00C2AF120D5E7525DD
:1015D00000D2AF12077C120D5E75240078A4E6607D
:1015E00006D294D295D296C3E53C940440020161A0
:1015F000412F901A0D7820D172E520B4550AA3D15D
:1016000072E520B4AA0280137567A57568F1120D02
:101610006ED139756700756800801D901A03788057
:101620007B0AD172A308DBFA901A0F788C7B1AD14F
:1016300072A308DBFA901A2922C2AFD1B5D19290D9
:101640001A007410D177A37447D177A37421D1778E
:10165000901A0378807B0AD176A308DBFA901A0FE0
:10166000788C7B1AD176A308DBFAD1C8D1A6901A60
:101670002922E493F622E6438F01538FFDFFC3E551
:1016800083941C400122EF8567B78568B7F0538FBC
:10169000FE22438F02438F018567B78568B7901A92
:1016A0000DF0538FFC22901A0D7455D177901A0EBD
:1016B00074AAD177227A3079D07820901A40D172EA
:1016C000E520F709A3DAF7227A3079D0901A40E7BB
:1016D000D17709A3DAF9227C05120780DCFB22C24C
:1016E000AF120CFB120D01120D07120D0D12077433
:1016F000120CFB120D01120D07120D0D12077412C0
:101700000CFB120D01120D07120D0DD2AF22C2AF4C
:10171000120D0D120D07120D01120CFB120774129F
:101720000D0D120D07120D01120CFB120774120D94
:0D1730000D120D07120D01120CFBD2AF229D
:1019FD00020FF1104721FFFFFFFFFFFF09FF01FF5E
:101A0D0055AA01FFFFFFFFFF03FFFFFF25D0285061
:0D1A1D0004FF02FF7AFF0701FFFF0000FF3A
:101A4000234D5F485F31302320202020202020209C
:101A500023424C48454C492445464D3842323123B7
:101A60002020202020202020202020202020202076
:101C0000C2AFC2D37597DE7597AD7581C075A90057
:101C100043FF80752438752503B1DB7529A5752A26
:101C2000F143F10853A4F7D28375D4FF75E3407DE7
:101C3000FA780379E67C10752200752300901DE880
:101C40007B0675249875250130830281482083081E
:101C5000D8FBD9F9DCF781BA308308D8FBD9F9DC95
:101C6000F781BAB19BE493A3C39A6004DDC381BA40
:101C7000DBDBB18D600281317B08E493FAA3B16EA6
:101C8000DBF87A30B16E752200752300B18DEAFC65
:101C9000EBFDC3ED94FE400EB18D8A278B28ED300D
:101CA000E0048A828B83B18D7AC270D8C3ED94FE32
:101CB000601950CEBD0029EC600F7520007521FF22
:101CC000752900752A000200008100A827A92808AC
:101CD00009D804D90281DDB191EAF281D10D81A642
:101CE000C3ED94035051EDA2E092007AC5C3E582A2
:101CF0009400E583941C508C200010438F02438F86
:101D0000018529B7852AB7F0300027A827A9280818
:101D100009438F01538FFDD804D902A132C3E58353
:101D2000941C4003A3A117E28529B7852AB7F0A325
:101D3000A117538FFC81827AC1BD030CE493A3FAEF
:101D4000B152DCF8B14A81828184AA22AB23B16E00
:101D5000EBFAEA6222752608C3E52313F523E52290
:101D600013F52250066323A0632201D526EAB1DBD6
:101D7000B1DB75260AEAF4200102D283300102C2E7
:101D800083B1DBC3134002C201D526EB22B191EA35
:101D9000FB208302A191308302A196752608AE2410
:101DA000AF25C3EF13FFEE13FEB1DFB1DBC3EA13C0
:101DB0003083024480FA30E703632201C3E5231332
:101DC000F523E52213F52250066323A0632201D5F3
:101DD00026D9E52265236523F52222AE24AF250E00
:101DE0000FDEFEDFFCD20122424C48656C693437BD
:061DF0003164E8B20601B7
:00000001FF
