:020000040000FA
:060000000219FD0206FDDD
:03000B0002036687
:0300130002070AD7
:03001B0002046B71
:03002B000203B617
:03005B0002071980
:030073000203EB9A
:1000C0000406080C10182030406080A0C09000D1B9
:1000D0007301F101FE210E211E212B213B2148211C
:1000E0005B216B217E2188219821A521BB21C8217C
:1000F000DBA6F008A67108A66F08856FF022A6F0AF
:1001000008A66F08A67008A66F08856FF022E57034
:10011000B5F002E571F608A67108856FF022A6F029
:1001200008A66F08A67108856FF022A6F008A670D1
:1001300008A66F08A66F08856FF022A6F008A670C3
:1001400008A67008856FF022E570B5F002E571F63B
:1001500008A66F08A67008856FF022A6F008A66FA3
:1001600008A66F08A67008856FF022E570B5F0024A
:10017000E571F608A67008A66F08856FF022A6F054
:1001800008A671088570F022E570B5F002E571F6F9
:1001900008A670088570F022A6F008A66F08A67061
:1001A000088570F022E570B5F002E571F608A66FDB
:1001B00008A66F08A66F08856FF022A6F008A67043
:1001C00008A66F088570F022E570B5F002E571F6BB
:1001D00008A66F08A66F088570F022A6F008A66F23
:1001E00008A66F08A66F088570F022C285C0D0C02F
:1001F000E0740FD5E0FDD0E0D0D0D285C0D0C0E013
:100200007405D5E0FDD0E0D0D022C285C0D0C0E0DA
:100210007405D5E0FDD0E0D0D0D285C0D0C0E07468
:100220000FD5E0FDD0E0D0D022C0D0C0E0C0F0C2F9
:10023000A8C28CD28575A420C0D0C0E07405D5E0DA
:10024000FDD0E0D0D075F00830E70431EB800251EA
:100250000A23D5F0F375A400D285C0D0C0E0741491
:10026000D5E0FDD0E0D0D0D28C758A00758C00C26C
:1002700089D2A8D0F0D0E0D0D022C0D0C0E0C0F069
:10028000D28575A420C0D0C0E07405D5E0FDD0E0D3
:10029000D0D075F00830E70431EB8002510A23D545
:1002A000F0F375A400D285C0D0C0E07414D5E0FD91
:1002B000D0E0D0D0D0F0D0E0D0D022E529A2473392
:1002C000F52875290F8075E529A24733A24633F535
:1002D0002875290D8066E529A24733A24633A24539
:1002E00033F52875290B8054E52854F0C24C452974
:1002F000C4F5287529098044E528A24813A24913AA
:10030000A24A13F5287529078032E528A24813A2CE
:100310004913F5287529058023E528A24813F528F7
:100320007529038017204F93204E9C204DA8204C08
:10033000B7204BC4204AD32049DFE528C46528658F
:1003400029F478D0856FF023541E11CDE52823546D
:100350001E11CDE528C423541E11CDE52923541EBA
:1003600011CDA6F008220540203B0132C0D0C0E0EC
:1003700075D01018B8CF3620850BD285856F8A08C6
:10038000D0E0D0D03275A400D285C23B758E0C75FA
:1003900089AAC2A9C289C28B758A00758C00758230
:1003A00000D2A8D2AA43E610D0E0D0D032B28586DF
:1003B0008AD0E0D0D032C0D0C0E0C2CF0541E566DF
:1003C0006009E5656005756500801B756501E523BD
:1003D00060021523C3E55460057555008008055576
:1003E000E55570021555D0E0D0D032C2AF53E67F4C
:1003F0007592FA7593FFC22053917FD2AF32C0D06D
:1004000075D010E52B7004E52A601EE52AA258136A
:10041000F528A259132528F528E52B03C2E7F5296D
:1004200003C2E73529F52980067528FF7529FF7174
:1004300025758AFF758E097589A2C28DD23BD2A916
:10044000D28575A420D0D0320522E5227002152273
:10045000C3E52294325002815E7554008161752398
:100460000AD0F0D0E0D0D043E61032C2AFC2A853D9
:10047000E6EFC28E856B8BC0D0C0E0C0F075D008AF
:10048000C2CAA8CCA9CDD2CAD2AF758A00C3E8959A
:100490006CF8E9956DF9C3E913F9E813F8E56660BE
:1004A00007C3E913F9E813F8E97025E8956E4020D1
:1004B000956E501CE582B410177C007B007A0079A1
:1004C00008900000A86AE5667004C3E813F881D9B3
:1004D000900000D2A8D2AA8148E0FDC39CC39840F6
:1004E000EF98EB33FB0582E0FCC39DC39840E19895
:1004F000EB33FB0582E0FDC39CC39840D398EB33FC
:10050000FB0582E0FCC39DC39840C598EB33FB0517
:1005100082E0FDC39CC39840B798EB33FB0582E0B3
:10052000FCC39DC39840A998EB33FB0582E0FDC353
:100530009CC398409B98EB33FB0582E0FCC39DC3B2
:1005400098408D98EB33FB0582A154900000D2A80F
:10055000D2AA8148E0FDC39CC39840EF98EA33FAE1
:100560000582E0FCC39DC39840E198EA33FA058216
:10057000E0FDC39CC39840D398EA33FA0582E0FCBF
:10058000C39DC39840C598EA33FA0582E0FDC39C39
:10059000C39840B798EA33FA0582E0FCC39DC3983C
:1005A00040A998EA33FA0582E0FDC39CC398409BBA
:1005B00098EA33FA0582E0FCC39DC398408D98EA1F
:1005C00033FA0582EBC46B6A54F0F9EAC4303701A0
:1005D000F454F0C3996009900000D2A8D2AA8148CF
:1005E00030370271FEEBF4C454F0F9EAF4C4540F4E
:1005F00049FAEBF4C4540FFBC3EAF99460FAEB94A4
:1006000000FB5020C3E97B007A0079006016C31319
:100610005006F9C39552600AE9F552755300790006
:1006200080020553303A27C3EA94D0F8EB9407F9D7
:10063000400BE8FAE9FB203509D235C142303502DA
:10064000C235203902B235C3EA33FAEB33FBEB2B68
:100650003B3BF9C3EB13FBEA13FAEA29FAEB34004C
:10066000FB30E3047AFF7BFFE5255403601B202A5F
:1006700018E55D33F9EB7007C3E99A4002E9FAE542
:100680003CC4332AFAEB3400FBC3EA33C4540FF8FA
:10069000EB33C454F048F87005EA60027801D522C3
:1006A0000205228854D230E86003755500C3E55B2B
:1006B000FC955C4002AC5CC3EC95545008EC75F0C2
:1006C00008A4FAABF0EAF4F8EBF45407F988568979
:1006D0005775230AE55A30E20853F7DF43F74080A5
:1006E0000853D8FE43DA01800020370A900000D278
:1006F000A8D2AA43E610D0F0D0E0D0D032C0E08536
:100700006B8BE58AF00582D0E032C2AAD28EC2CAD3
:1007100085CC6C85CD6DD2CA32C2AFC0D0C0E07579
:10072000D0088556FB8557FC85575A53F7BF53DAD7
:10073000FE53E6EF53F7DF53D8FED0E0D0D0D2AF70
:10074000327901801479038010790A800C791E8037
:10075000087964800479C880007817E4D5E0FDD872
:10076000FAD9F62278FF20282879A1E76023E54806
:10077000601F74FF8548F084853FF030290375F0D1
:1007800005A4F8C5F0600278FFC3E8955D5002A8A3
:100790005D885C22C3E54794A0E5489400E55C5081
:1007A0000314E1A5046002F55C2275E89022055E61
:1007B000C3E55E9408405330EDF4A8BDA9BE755E54
:1007C00000E9FA79A0E76041EA7006E55F60188009
:1007D0000CC3E8955F600EE55F5005600A14800762
:1007E0000460FA8002E55FF55FC39569401B755BA5
:1007F000C0C394044013755B80C39404400B755BC5
:1008000040C394044003755B0022E55B2410500252
:1008100074FFF55B22743279A687F0A4C5F0A2F7C5
:1008200033F55D227547007548F022C2AFC2CAA8F1
:10083000CCA9CDAA4130CF010AD2CAD2AFC3EA13A4
:10084000FAE913F9E813F8AB42AC4388428943C391
:10085000E89BF8E99C20280A547FF9302C022149B2
:100860008040AD448A44F9EA9D547FFA600678FFDF
:1008700079FF8013AE45AF468B458C46A842A9430D
:10088000C3E89EF8E99FF9C3E54813FBE54713FA6F
:10089000E82AF547E93BF54850087547FF7548FFDA
:1008A000804DAA47AB48AC47AD487E047F02C3EBFE
:1008B0009404400D1E1FC3EB940840052029021E1E
:1008C0001FC3ED13FDEC13FCDEF7C3EA9CFAEB9DAE
:1008D000FBEF6009C3E913F9E813F8DFF7EA28FA38
:1008E000EB39FB8A478B4850067BFF8B478B48C30D
:1008F000EB94025002D22C3028047F03801C7892A3
:10090000E6FFC3E53D948240110FC3E53D94A0404E
:10091000010FC3EF940640027F057E02E548C454F0
:100920000FF9E548C454F0F8E547C4540F28F8C35C
:10093000E89EFAE99400FB4009C3EA9401EB9400B5
:1009400050047A01E4FB020995AA47AB48EBC4FEC8
:10095000EAC4540F4EFCC3EA9CFAEB9400FBC3E8D4
:1009600013C313F8EA28FAEB3400FB8A478B48C319
:10097000EB94024002C22C7802EBC4FE7B00EAC476
:10098000540F4EFAC3EA98FA4005C3940150027A14
:10099000017892E6FFC2AF85472A85482BD2AF3057
:1009A00020022195854E92854F93D22043E680C345
:1009B000E49AF8E49BF9C3E833F8E933F9302C03FF
:1009C000020A34E8FAE9FBD3E913FDE813FC884E88
:1009D000894FC3EF94036038EF20E00CE82CF8E96E
:1009E0003DF9ECFAEDFB8013E828F8E939F9C3E8A2
:1009F0002401F8E93400F97AFF7BFFC3EF94034048
:100A00000F8A508B51884A894B8C4C8D4D020A6954
:100A1000885089518A4A8B4B8C4C8D4D30281275E9
:100A200050F07551FF754CF0754DFF754EF0754FD8
:100A3000FF020A69E8FAD3E813FC884EC3EF940377
:100A40006021EF20E007E82CF8ECFA4154E8282474
:100A500001F87AFFC3EF940340098A50884A8C4C0E
:100A6000020A6988508A4A8C4C3020024169753AE2
:100A700002D22043E680E5255403602DA847A9480B
:100A8000C3E913F9E813F8302804E92440F9C2AFA8
:100A900053E67F759100C3E498F594E499F5957554
:100AA0009104D22043E680D2AF22D221754900754D
:100AB0002000302B0375204041C8D22175490075B4
:100AC0002040302B0375200078017901202C20E58F
:100AD0002554036002C2217914E548C31370010450
:100AE000F8C3941440027814302804781B791BC38F
:100AF000E833F8C3E933F9202010E549600C3028C9
:100B000003D53A04D222617C51710549E59BF45426
:100B100040B52002616630280908C3E899400118F1
:100B200041F720210A08C3E899400241C841F7C2B1
:100B30002153E67F759100302C117594007595F066
:100B4000759104D22043E680020AC8E5487EFFC3BF
:100B5000334009C3334005C3334001FEC3E49E75EF
:100B60009400F5956140C3E5399401500241C830C5
:100B7000210241C8D802617A41F7C222C2AF53E6CE
:100B80007F759100855094855195759104854A92A1
:100B9000854B93D22043E680D2AFE525540360070E
:100BA0002029020539801030220D202B0A20210730
:100BB000158115810215C82278003021027801E5DF
:100BC0003D75F007A4F9E5F028F5F0E9A2F013A2CD
:100BD000F113A2F213F53DC394785003753D78C329
:100BE000E53D953E4009D291D293D29575D53F30DF
:100BF000200261EF854C92854D93D22043E68022FE
:100C0000203814C2AFD293C290C291C29575D52F2D
:100C1000D2AF759F03A100C2AFD293C294C295C256
:100C20009175D53ED2AF759F03A100203814C2AF95
:100C3000D295C29375D53BC290C291D2AF759F1326
:100C4000A100C2AFD291C29375D53BC294C295D2D6
:100C5000AF759F23A100203814C2AFD291C294C2B5
:100C600095C29375D53BD2AF759F23A100C2AFD279
:100C700095C290C291C29375D53BD2AF759F13A117
:100C800000203814C2AFD293C29175D53EC294C22F
:100C900095D2AF759F038068C2AFD293C29575D5C8
:100CA0002FC290C291D2AF759F038054203814C2D6
:100CB000AFD295C292C293C29175D53ED2AF759F05
:100CC00013803DC2AFD291C292C293C29575D52F07
:100CD000D2AF759F238029203814C2AFD291C2951C
:100CE00075D52FC292C293D2AF759F238012C2AF27
:100CF000D295C29175D53EC292C293D2AF759F1361
:100D0000227A147B7880127A107B8C800C7A0D7B8F
:100D1000B480067A0B7BC88000E564D5E0012279B7
:100D200002E4D293D5E0FDD292C293D5E0FDD293F6
:100D3000D5E0FDC292C293D5E0FDE920E004D29057
:100D4000C29130E004D294C295E564D5E0FDE9207B
:100D5000E002D29130E002D2957496D5E0FDD9C17F
:100D6000EAF8D5E0FDD8FBDBB0D29322D291D29342
:100D7000D295D291D293D29575D53F22788076FFC5
:100D80000876FF0876FF0876FF0876FF0876FF08EA
:100D900076090876FF087601788C76010876FF08D8
:100DA00076FF0876FF0876FF0876FF087603087658
:100DB000FF0876FF0876FF0876250876D0087628A3
:100DC0000876500876040876FF0876020876FF0851
:100DD000767A0876FF0876070876010876FF0876A7
:100DE000FF08760008760022FA75F00CA4ABF0EA52
:100DF000C333F8740133F9E8C333F8E933F9E8C3CE
:100E00002BF8E93400F9E8C333F8E933F92278889C
:100E1000E6C39403D23A5002C23AC238E630E10245
:100E2000D238A23892397886E6149000C09378A61A
:100E3000F67886E6F53FC394025003753F02789C2E
:100E4000E6753EFFB40203753EA0B40303753E820F
:100E500078A0E6F8600674282409D8FCF56978962D
:100E6000E6B1E888318932789EE6B1E88833893482
:100E70007897E6B1E888358936B16C223036117A38
:100E8000007B007CFF7D007E00D1E28B618A6022C6
:100E9000303A227896E6FA7B00789EE6FC7D00C325
:100EA000EA33FAEB33FBC3EC33FCED33FD7E0AD1BE
:100EB000E28B638A627896303A02789EE6FA7B008B
:100EC0007897E6FC7D007E00303A10C3EA33FAEBF7
:100ED00033FBC3EC33FCED33FD7E0AD1E28B618A38
:100EE0006022C3EC9EFCED9400FDC3EC9AFCED9BEC
:100EF000FDC3EC9423ED940050047C237D00C3ECEF
:100F000094FFED940140047CFF7D017BFF0B7A0090
:100F10000AEA7009C3EC33FCED33FD80F0EC8AF093
:100F2000A4AEF0ED8AF0A42E947C40E4EAF460DDF7
:100F300022D236D17C12074D12074D7A007B007CFD
:100F400010120745E5542AFA74003BFBDCF37C04DD
:100F5000C3EB13FBEA13FADCF7FFEB60027FFFC27F
:100F600036D17C2278A5E6F954037000E9540C7060
:100F700000E954307000E954C07000227588517542
:100F80008E0C7589AA758C00758D00758E0C756B2D
:100F900080756A10756E14756FFF7570EC7571DD74
:100FA00022758851758E0C7589AA758C00758D0017
:100FB000758E0C756B00756A20756E28756FEC75F3
:100FC00070CD7571AF22C0E07414208517C0D0C0F9
:100FD000E0740AD5E0FDD0E0D0D02085EBD5E0ED7F
:100FE000C3D0E022C0D0C0E0740AD5E0FDD0E0D08C
:100FF000D03085D4D5E0EDD3D0E022756700756898
:10100000007597DE7597AD7581AF43FF8075EF066C
:1010100075A900120D6C7580FF75F1F075A400754F
:1010200080FF75D4FF75902A75F23F75A53F7590C6
:101030002A75D53F75A60175E34075E202120D6C65
:10104000E4F8F6D8FD120D7CD102789886647530EC
:1010500001C2AF120755120D0112074D120D0712F2
:10106000074D120D0D12074D120F64C2AF756700C8
:1010700075680078FA79FA308516D9FBD8F775A922
:101080001375A71075C10075A700756600021C00D6
:10109000120E0E120E7C78988664120D6C75A710D5
:1010A00075C13075A70075A90375660175C804750B
:1010B000910475D84075D90875F783759E007596AB
:1010C0000075DA4A75DB0075A82375E69075B803DC
:1010D000759B80759D0075D10C75BCB975BB10757D
:1010E000E88075B201120741753C00C23012075505
:1010F000C231C232C233C234755200755300D23489
:10110000120FC69237C23B752A00752B0075E4D5C5
:1011100030370375E45D120F7CC2A9D2ABD2AAD2DC
:10112000AF75220A120751755200755300C3E522AC
:10113000940A4018120FA175220A12075175520025
:10114000755300C3E522940A4002016B1207452043
:10115000300302106BC2AF120D01120D01120D010E
:10116000D2AF120755203403303A0302121412078B
:1011700045788CE6C3940150024114E530C39401D4
:10118000500241147567A57568F17F02D236120EC0
:101190007C120751C2AFC236120E7CC3E554947F55
:1011A000D2AF4070120741C2AF120D13D2AFDFDCD5
:1011B000120F31C3EF7897F6120755D1EF7F0AD29D
:1011C00036120E7C120751C2AFC236120E7CC3E536
:1011D00054947FD2AF50E6120741C2AF120D0112F4
:1011E0000749120D01D2AFDFD6120F31EF24037879
:1011F00096F6F87997E7C394234003985006E824BD
:10120000237897F6120755D149F11E120751120E95
:101210007C02106B756700756800120751C3E554B6
:10122000940140022165C2AF120D13120D13120D6D
:1012300013D2AF120755753000752A00752B00E4E4
:10124000F537F5380537E537F4703F0538789AE615
:101250007819146012783214600D787D1460087863
:10126000FA146003753800C3E53898401D120D6C00
:10127000120741153875370078998664C2AF120D90
:1012800013D2AF78988664120751120749E523708C
:1012900002016BC3E5549401500AC3E55294015016
:1012A00016021244120751E523700302106B7552A7
:1012B00000755300021459C3E55294017017C2AF70
:1012C000120D6C78998664120D0178988664D2AFFD
:1012D000120751814BC3E55294027017C2AF120D31
:1012E0006C78998664120D0778988664D2AF1207DD
:1012F00051814BC3E55294037017C2AF120D6C7845
:10130000998664120D0D78988664D2AF12075181C8
:101310004BC3E55294047017C2AF120D6C789986D6
:1013200064120D1378988664D2AF120751814BC3B3
:10133000E55294057017C2AF120D6C78998664124D
:101340000D1378988664D2AF120751814BC3E552D2
:1013500094077019C3E55394065002419374013009
:101360003A0274037888F6C238C239814BC3E55219
:1013700094087019C3E553940650024193740230E7
:101380003A0274047888F6D238D239814BC3E552D8
:1013900094097017C3E553940650024193303A0BF9
:1013A000C37888E69402F6C23A814BC3E552940AA8
:1013B0007016C3E553940650024193203A0A788888
:1013C000E62402F6D23A814BC3E55294147025C349
:1013D000E553940650024193C2AF901A0B740093E8
:1013E000D2AF7888F613C238C2394002D2384002F0
:1013F000D2398057C3E55294157038C3E55394062B
:10140000404FC2AF901A0B740093D2AFF8B80102EC
:101410007402B802027401B803027404B8040274BE
:10142000037888F613C238C2394002D2384002D25B
:10143000398018C3E552940C70117567A57568F171
:10144000C3E5539406400AD149D2AF755200755393
:10145000007567007568004193C2AF120D6CE4D24D
:10146000AFE4F55EF524F525F53D755E08120741FC
:101470001207AA30EDFDA8BDA9BEE97001F8885F8A
:101480001207AE755E08C2AF120815855D5B855DFB
:101490005CD2AF75A71075C13075A70075A903752B
:1014A0006601303A07C238303502D238D228753951
:1014B00000120CAC120CD712082412082B120824AC
:1014C00012082B120824120ABA120BB8120C0012BE
:1014D000082B120AAA202C03120764302C031207CF
:1014E00094120BB8120C2B12082B120ABA120BB85A
:1014F000120C5612082B120AAA120BB8120C8112E7
:10150000082B120ABA120BB8120CAC12082B1207D5
:10151000AA120AAA120BB8120CD71207AE12082B85
:10152000302827855D5B79187A0CC3E53999400E20
:10153000C228D2298A3B855D5B855D5C800CC3E552
:1015400054940140030214C6A1D030291F202B1C43
:10155000E53B147006C229D22A81C6F53B203A0722
:10156000C3E554940140030214C68064753C002016
:101570003A0F78FA79A4E760027803C3E5559850EA
:101580004FE523604B303A17203805203507800F90
:10159000303502800A202B07D22B855D5B81F678DF
:1015A000F0302B05855D5B7820C3E5489850030239
:1015B00014C6302B1BC22BC238303502D238D22988
:1015C000753B12855D5B81C6053CE5546002A1D385
:1015D000753C00C2AF120D6C752500D2AF120751D9
:1015E000120D6C75240078A4E6600CC290C291C202
:1015F00092C293C294C295C3E53C94044002016B2D
:101600004139901A0D7820D182E520B4550AA3D132
:1016100082E520B4AA0280137567A57568F1120DE2
:101620007CD149756700756800801D901A03788029
:101630007B0AD182A308DBFA901A0F788C7B1AD12F
:1016400082A308DBFA901A2922C2AFD1C5D1A29099
:101650001A007410D187A37447D187A37421D1874E
:10166000901A0378807B0AD186A308DBFA901A0FC0
:10167000788C7B1AD186A308DBFAD1D8D1B6901A20
:101680002922E493F622E6438F01538FFDFFC3E541
:1016900083941C400122EF8567B78568B7F0538FAC
:1016A000FE22438F02438F018567B78568B7901A82
:1016B0000DF0538FFC22901A0D7455D187901A0E9D
:1016C00074AAD187227A3079D07820901A40D182BA
:1016D000E520F709A3DAF7227A3079D0901A40E7AB
:1016E000D18709A3DAF9227C05120755DCFB22C257
:1016F000AF120D01120D07120D0D120D1312074935
:10170000120D01120D07120D0D120D1312074912C1
:101710000D01120D07120D0D120D13D2AF22C2AF23
:10172000120D13120D0D120D07120D0112074912A1
:101730000D13120D0D120D07120D01120749120D96
:0D17400013120D0D120D07120D01D2AF2274
:1019FD00020FFB104721FFFFFFFFFFFF09FF01FF54
:101A0D0055AA01FFFFFFFFFF03FFFFFF25D0285061
:0D1A1D0004FF02FF7AFF0701FFFF0000FF3A
:101A4000234F5F485F30302320202020202020209B
:101A500023424C48454C492445464D3842323123B7
:101A60002020202020202020202020202020202076
:101C0000C2AFC2D37597DE7597AD7581C075A90057
:101C100043FF80752438752503B1DB7529A5752A26
:101C2000F143F12053A4DFD28575D4FF75E3407DE5
:101C3000FA780379E67C10752200752300901DE880
:101C40007B0675249875250130850281482085081A
:101C5000D8FBD9F9DCF781BA308508D8FBD9F9DC93
:101C6000F781BAB19BE493A3C39A6004DDC381BA40
:101C7000DBDBB18D600281317B08E493FAA3B16EA6
:101C8000DBF87A30B16E752200752300B18DEAFC65
:101C9000EBFDC3ED94FE400EB18D8A278B28ED300D
:101CA000E0048A828B83B18D7AC270D8C3ED94FE32
:101CB000601950CEBD0029EC600F7520007521FF22
:101CC000752900752A000200008100A827A92808AC
:101CD00009D804D90281DDB191EAF281D10D81A642
:101CE000C3ED94035051EDA2E092007AC5C3E582A2
:101CF0009400E583941C508C200010438F02438F86
:101D0000018529B7852AB7F0300027A827A9280818
:101D100009438F01538FFDD804D902A132C3E58353
:101D2000941C4003A3A117E28529B7852AB7F0A325
:101D3000A117538FFC81827AC1BD030CE493A3FAEF
:101D4000B152DCF8B14A81828184AA22AB23B16E00
:101D5000EBFAEA6222752608C3E52313F523E52290
:101D600013F52250066323A0632201D526EAB1DBD6
:101D7000B1DB75260AEAF4200102D285300102C2E5
:101D800085B1DBC3134002C201D526EB22B191EA33
:101D9000FB208502A191308502A196752608AE240C
:101DA000AF25C3EF13FFEE13FEB1DFB1DBC3EA13C0
:101DB0003085024480FA30E703632201C3E5231330
:101DC000F523E52213F52250066323A0632201D5F3
:101DD00026D9E52265236523F52222AE24AF250E00
:101DE0000FDEFEDFFCD20122424C48656C693437BD
:061DF0003164E8B20601B7
:00000001FF
