:020000040000FA
:060000000219FD020703D6
:03000B0002036687
:03001300020710D1
:03001B0002046B71
:03002B000203B617
:03005B0002071F7A
:030073000203EB9A
:1000C0000406080C10182030406080A0C09000D1B9
:1000D0007301F101FE210E211E212B213B2148211C
:1000E0005B216B217E2188219821A521BB21C8217C
:1000F000DBA6F008A67108A66F08856FF022A6F0AF
:1001000008A66F08A67008A66F08856FF022E57034
:10011000B5F002E571F608A67108856FF022A6F029
:1001200008A66F08A67108856FF022A6F008A670D1
:1001300008A66F08A66F08856FF022A6F008A670C3
:1001400008A67008856FF022E570B5F002E571F63B
:1001500008A66F08A67008856FF022A6F008A66FA3
:1001600008A66F08A67008856FF022E570B5F0024A
:10017000E571F608A67008A66F08856FF022A6F054
:1001800008A671088570F022E570B5F002E571F6F9
:1001900008A670088570F022A6F008A66F08A67061
:1001A000088570F022E570B5F002E571F608A66FDB
:1001B00008A66F08A66F08856FF022A6F008A67043
:1001C00008A66F088570F022E570B5F002E571F6BB
:1001D00008A66F08A66F088570F022A6F008A66F23
:1001E00008A66F08A66F088570F022C285C0D0C02F
:1001F000E0740FD5E0FDD0E0D0D0D285C0D0C0E013
:100200007405D5E0FDD0E0D0D022C285C0D0C0E0DA
:100210007405D5E0FDD0E0D0D0D285C0D0C0E07468
:100220000FD5E0FDD0E0D0D022C0D0C0E0C0F0C2F9
:10023000A8C28CD28575A420C0D0C0E07405D5E0DA
:10024000FDD0E0D0D075F00830E70431EB800251EA
:100250000A23D5F0F375A400D285C0D0C0E0741491
:10026000D5E0FDD0E0D0D0D28C758A00758C00C26C
:1002700089D2A8D0F0D0E0D0D022C0D0C0E0C0F069
:10028000D28575A420C0D0C0E07405D5E0FDD0E0D3
:10029000D0D075F00830E70431EB8002510A23D545
:1002A000F0F375A400D285C0D0C0E07414D5E0FD91
:1002B000D0E0D0D0D0F0D0E0D0D022E529A2473392
:1002C000F52875290F8075E529A24733A24633F535
:1002D0002875290D8066E529A24733A24633A24539
:1002E00033F52875290B8054E52854F0C24C452974
:1002F000C4F5287529098044E528A24813A24913AA
:10030000A24A13F5287529078032E528A24813A2CE
:100310004913F5287529058023E528A24813F528F7
:100320007529038017204F93204E9C204DA8204C08
:10033000B7204BC4204AD32049DFE528C46528658F
:1003400029F478D0856FF023541E11CDE52823546D
:100350001E11CDE528C423541E11CDE52923541EBA
:1003600011CDA6F008220540203B0132C0D0C0E0EC
:1003700075D01018B8CF3620850BD285856F8A08C6
:10038000D0E0D0D03275A400D285C23B758E0C75FA
:1003900089AAC2A9C289C28B758A00758C00758230
:1003A00000D2A8D2AA43E610D0E0D0D032B28586DF
:1003B0008AD0E0D0D032C0D0C0E0C2CF0541E566DF
:1003C0006009E5656005756500801B756501E523BD
:1003D00060021523C3E55460057555008008055576
:1003E000E55570021555D0E0D0D032C2AF53E67F4C
:1003F0007592FA7593FFC22053917FD2AF32C0D06D
:1004000075D010E52B7004E52A601EE52AA258136A
:10041000F528A259132528F528E52B03C2E7F5296D
:1004200003C2E73529F52980067528FF7529FF7174
:1004300025758AFF758E097589A2C28DD23BD2A916
:10044000D28575A420D0D0320522E5227002152273
:10045000C3E52294325002815E7554008161752398
:100460000AD0F0D0E0D0D043E61032C2AFC2A853D9
:10047000E6EFC28E856B8BC0D0C0E0C0F075D008AF
:10048000C2CAA8CCA9CDD2CAD2AF758A00C3E8959A
:100490006CF8E9956DF9C3E913F9E813F8E56660BE
:1004A00007C3E913F9E813F8E97025E8956E4020D1
:1004B000956E501CE582B410177C007B007A0079A1
:1004C00008900000A86AE5667004C3E813F881D9B3
:1004D000900000D2A8D2AA8148E0FDC39CC39840F6
:1004E000EF98EB33FB0582E0FCC39DC39840E19895
:1004F000EB33FB0582E0FDC39CC39840D398EB33FC
:10050000FB0582E0FCC39DC39840C598EB33FB0517
:1005100082E0FDC39CC39840B798EB33FB0582E0B3
:10052000FCC39DC39840A998EB33FB0582E0FDC353
:100530009CC398409B98EB33FB0582E0FCC39DC3B2
:1005400098408D98EB33FB0582A154900000D2A80F
:10055000D2AA8148E0FDC39CC39840EF98EA33FAE1
:100560000582E0FCC39DC39840E198EA33FA058216
:10057000E0FDC39CC39840D398EA33FA0582E0FCBF
:10058000C39DC39840C598EA33FA0582E0FDC39C39
:10059000C39840B798EA33FA0582E0FCC39DC3983C
:1005A00040A998EA33FA0582E0FDC39CC398409BBA
:1005B00098EA33FA0582E0FCC39DC398408D98EA1F
:1005C00033FA0582EBC46B6A54F0F9EAC4303701A0
:1005D000F454F0C3996009900000D2A8D2AA8148CF
:1005E00030370271FEEBF4C454F0F9EAF4C4540F4E
:1005F00049FAEBF4C4540FFBC3EAF99460FAEB94A4
:1006000000FB5020C3E97B007A0079006016C31319
:100610005006F9C39552600AE9F552755300790006
:1006200080020553303A27C3EA94D0F8EB9407F9D7
:10063000400BE8FAE9FB203509D235C142303502DA
:10064000C235203902B235C3EA33FAEB33FBEB2B68
:100650003B3BF9C3EB13FBEA13FAEA29FAEB34004C
:10066000FB30E3047AFF7BFFE5255403601B202A5F
:1006700018E55D33F9EB7007C3E99A4002E9FAE542
:100680003CC4332AFAEB3400FBC3EA33C4540FF8FA
:10069000EB33C454F048F87005EA60027801D522C3
:1006A0000205228854D230E86003755500C3E55B2B
:1006B000FC955C4002AC5CC3EC95545008EC75F0C2
:1006C00008A4FAABF0EAF4F8EBF45407F9C3E894A1
:1006D0008CFAE99400FB50047A007B008856895715
:1006E0008A588B5975230A53F7DF43F7408000205F
:1006F000370A900000D2A8D2AA43E610D0F0D0E08A
:10070000D0D032C0E0856B8BE58AF00582D0E03234
:10071000C2AAD28EC2CA85CC6C85CD6DD2CA32C275
:10072000AFC0D0C0E075D008A8F9E55A30E20AE5BC
:10073000FA20E22E20E12B8008E5FA30E22420E1C5
:1007400021C3E55713F8E55613F5FB88FCC3E559BB
:1007500013F8E55813F5E988EA85575A53F7BF535C
:10076000E6EF53F7DFD0E0D0D0D2AF32790180147A
:1007700079038010790A800C791E800879648004DE
:1007800079C880007817E4D5E0FDD8FAD9F6227848
:10079000FF20282879A1E76023E548601F74FF85C2
:1007A00048F084853FF030290375F005A4F8C5F0C2
:1007B000600278FFC3E8955D5002A85D885C22C3A3
:1007C000E54794A0E5489400E55C500314E1D004AB
:1007D0006002F55C2275E89022055EC3E55E940830
:1007E000405330EDF4A8BDA9BE755E00E9FA79A0CA
:1007F000E76041EA7006E55F6018800CC3E8955F2A
:10080000600EE55F5005600A1480070460FA8002FC
:10081000E55FF55FC39569401B755BC0C3940440F9
:1008200013755B80C39404400B755B40C394044014
:1008300003755B0022E55B2410500274FFF55B2218
:10084000743279A687F0A4C5F0A2F733F55D22755E
:1008500047007548F022C2AFC2CAA8CCA9CDAA41B0
:1008600030CF010AD2CAD2AFC3EA13FAE913F9E8CA
:1008700013F8AB42AC4388428943C3E89BF8E99C38
:1008800020280A547FF9302C0221748040AD448A1C
:1008900044F9EA9D547FFA600678FF79FF8013AE31
:1008A00045AF468B458C46A842A943C3E89EF8E96C
:1008B0009FF9C3E54813FBE54713FAE82AF547E932
:1008C0003BF54850087547FF7548FF804DAA47AB78
:1008D00048AC47AD487E047F02C3EB9404400D1E34
:1008E0001FC3EB940840052029021E1FC3ED13FD12
:1008F000EC13FCDEF7C3EA9CFAEB9DFBEF6009C347
:10090000E913F9E813F8DFF7EA28FAEB39FB8A472D
:100910008B4850067BFF8B478B48C3EB94025002F9
:10092000D22C3028047F03801C7892E6FFC3E53D7B
:10093000948240110FC3E53D94A040010FC3EF9492
:100940000640027F057E02E548C4540FF9E548C41D
:1009500054F0F8E547C4540F28F8C3E89EFAE99428
:1009600000FB4009C3EA9401EB940050047A01E4CF
:10097000FB0209C0AA47AB48EBC4FEEAC4540F4EC1
:10098000FCC3EA9CFAEB9400FBC3E813C313F8EA38
:1009900028FAEB3400FB8A478B48C3EB94024002F1
:1009A000C22C7802EBC4FE7B00EAC4540F4EFAC39B
:1009B000EA98FA4005C3940150027A017892E6FF62
:1009C000C2AF85472A85482BD2AF30200221C0858F
:1009D0004E92854F93D22043E680C3E49AF8E49B7D
:1009E000F9C3E833F8E933F9302C03020A5FE8FA77
:1009F000E9FBD3E913FDE813FC884E894FC3EF945C
:100A0000036038EF20E00CE82CF8E93DF9ECFAED52
:100A1000FB8013E828F8E939F9C3E82401F8E93440
:100A200000F97AFF7BFFC3EF9403400F8A508B518C
:100A3000884A894B8C4C8D4D020A94885089518A82
:100A40004A8B4B8C4C8D4D3028127550F07551FFF0
:100A5000754CF0754DFF754EF0754FFF020A94E826
:100A6000FAD3E813FC884EC3EF94036021EF20E033
:100A700007E82CF8ECFA417FE8282401F87AFFC354
:100A8000EF940340098A50884A8C4C020A9488509B
:100A90008A4A8C4C3020024194753A02D22043E6B7
:100AA00080E5255403602DA847A948C3E913F9E858
:100AB00013F8302804E92440F9C2AF53E67F75915A
:100AC00000C3E498F594E499F595759104D2204318
:100AD000E680D2AF22D221754900752000302B0369
:100AE00075204041F3D221754900752040302B0319
:100AF00075200078017901202C20E525540360023F
:100B0000C2217914E548C313700104F8C39414405A
:100B1000027814302804781B791BC3E833F8C3E942
:100B200033F9202010E549600C302803D53A04D26F
:100B30002261A7519C0549E59BF45440B520026110
:100B40009130280908C3E899400118612220210A40
:100B500008C3E899400241F36122C22153E67F7540
:100B60009100302C117594007595F0759104D22088
:100B700043E680020AF3E5487EFFC3334009C333EE
:100B80004005C3334001FEC3E49E759400F59561B2
:100B90006BC3E5399401500241F330210241F3D88F
:100BA0000261A56122C222C2AF53E67F7591008522
:100BB0005094855195759104854A92854B93D22026
:100BC00043E680D2AFE525540360072029020539AA
:100BD000801030220D202B0A20210715811581025B
:100BE00015BB2278003021027801E53D75F007A49D
:100BF000F9E5F028F5F0E9A2F013A2F113A2F2133F
:100C0000F53DC394785003753D78C3E53D953E406E
:100C100009C290C292C29475D53F302002811A85D4
:100C20004C92854D93D22043E68022203810C2AFEB
:100C3000D293C29175D50FD2AF759F0381FBC2AF1E
:100C4000D293C29575D53CD2AF759F0381FB2038F6
:100C500010C2AFC29475D533C291D2AF759F1381C4
:100C6000FBC2AFC29075D533C295D2AF759F2381B9
:100C7000FB203810C2AFD291C29575D533D2AF7573
:100C80009F238077C2AFD295C29175D533D2AF750D
:100C90009F138067203810C2AFC29275D53CC295B1
:100CA000D2AF759F038054C2AFC29275D50FC29167
:100CB000D2AF759F038044203810C2AFD295C29343
:100CC00075D53CD2AF759F138031C2AFD291C2931C
:100CD00075D50FD2AF759F238021203810C2AFC2C7
:100CE0009075D50FC293D2AF759F23800EC2AFC24D
:100CF0009475D53CC293D2AF759F13227A147B783A
:100D000080127A107B8C800C7A0D7BB480067A0B73
:100D10007BC88000E564D5E001227902E4D293D556
:100D2000E0FDD292D5E0FDC292D5E0FDC293D5E0C0
:100D3000FDE920E002D29030E002D294E564D5E0F3
:100D4000FDE920E002C29030E002C2947496D5E042
:100D5000FDD9C9EAF8D5E0FDD8FBDBB8D29322C2B1
:100D600090C292C294D291D293D29575D53F2278F7
:100D70008076FF0876FF0876FF0876FF0876FF0882
:100D800076FF0876090876FF087601788C760108E8
:100D900076FF0876FF0876FF0876FF0876FF08766C
:100DA000030876FF0876FF0876FF0876250876D0D8
:100DB0000876280876500876040876FF0876020838
:100DC00076FF08767A0876FF0876070876010876B7
:100DD000FF0876FF08760008760022FA75F00CA46A
:100DE000ABF0EAC333F8740133F9E8C333F8E933FD
:100DF000F9E8C32BF8E93400F9E8C333F8E933F92B
:100E0000227888E6C39403D23A5002C23AC238E646
:100E100030E102D238A23892397886E6149000C0C8
:100E20009378A6F67886E6F53FC394025003753FA3
:100E300002789CE6753EFFB40203753EA0B403033E
:100E4000753E8278A0E6F8600674282409D8FCF57F
:100E5000697896E6B1DB88318932789EE6B1DB8825
:100E60003389347897E6B1DB88358936B15F223033
:100E700036117A007B007CFF7D007E00D1D58B612E
:100E80008A6022303A227896E6FA7B00789EE6FC69
:100E90007D00C3EA33FAEB33FBC3EC33FCED33FDE7
:100EA0007E0AD1D58B638A627896303A02789EE6C4
:100EB000FA7B007897E6FC7D007E00303A10C3EAAA
:100EC00033FAEB33FBC3EC33FCED33FD7E0AD1D5B3
:100ED0008B618A6022C3EC9EFCED9400FDC3EC9A0A
:100EE000FCED9BFDC3EC9423ED940050047C237D2A
:100EF00000C3EC94FFED940140047CFF7D017BFF77
:100F00000B7A000AEA7009C3EC33FCED33FD80F084
:100F1000EC8AF0A4AEF0ED8AF0A42E947C40E4EAD2
:100F2000F460DD22D236D16F1207781207787A008A
:100F30007B007C10120770E5542AFA74003BFBDC3E
:100F4000F37C04C3EB13FBEA13FADCF7FFEB60025C
:100F50007FFFC236D16F2278A5E6F954037000E90D
:100F6000540C7000E954307000E954C070002275D0
:100F70008851758E0C7589AA758C00758D00758EDB
:100F80000C756B80756A10756E14756FFF7570EC5B
:100F90007571DD22758851758E0C7589AA758C0066
:100FA000758D00758E0C756B00756A20756E2875D1
:100FB0006FEC7570CD7571AF22C0E0741420851789
:100FC000C0D0C0E0740AD5E0FDD0E0D0D02085EBE1
:100FD000D5E0EDC3D0E022C0D0C0E0740AD5E0FD7A
:100FE000D0E0D0D03085D4D5E0EDD3D0E022756705
:100FF000007568007597DE7597AD7581AF43FF800A
:1010000075EF0675A900120D5F7580FF75F1F0751B
:10101000A4007580FF75D4FF75902A75F23F75A501
:101020003F75902A75D53F75A60175E34075E202BC
:10103000120D5FE4F8F6D8FD120D6FB1EF789886C7
:1010400064753001C2AF120780120CFC12077812CF
:101050000D02120778120D08120778120F57C2AF4F
:1010600075670075680078FA79FA308516D9FBD86B
:10107000F775A91375A71075C10075A700756600EF
:10108000021C00120E01120E6F78988664120D5F1A
:1010900075A71075C13075A70075A9037566017530
:1010A000C80475910475D84075D90875F782759E86
:1010B0000375960075DA4275DB4275A82375E690D4
:1010C00075B803759B80759D0075D10C75BCB9759D
:1010D000BB1075E88075B20112076C753C00C23018
:1010E000120780C231C232C233C234755200755306
:1010F00000D234120FB99237C23B752A00752B000B
:1011000075E4D530370375E45D120F6FC2A9D2AB19
:10111000D2AAD2AF75220A12077C7552007553000D
:10112000C3E522940A4018120F9475220A12077C14
:10113000755200755300C3E522940A4002015E1205
:10114000077020300302105EC2AF120CFC120CFCC0
:10115000120CFCD2AF120780203403303A03021283
:1011600007120770788CE6C3940150024107E530FE
:10117000C39401500241077567A57568F17F02D2DB
:1011800036120E6F12077CC2AFC236120E6FC3E565
:1011900054947FD2AF407012076CC2AF120D0ED2C2
:1011A000AFDFDC120F24C3EF7897F6120780D1DC93
:1011B0007F0AD236120E6F12077CC2AFC236120EF1
:1011C0006FC3E554947FD2AF50E612076CC2AF12E2
:1011D0000CFC120774120CFCD2AFDFD6120F24EFF6
:1011E00024037896F6F87997E7C394234003985040
:1011F00006E824237897F6120780D136F10B120700
:101200007C120E6F02105E75670075680012077C15
:10121000C3E554940140022158C2AF120D0E120DC5
:101220000E120D0ED2AF120780753000752A0075B0
:101230002B00E4F537F5380537E537F4703F05380E
:10124000789AE67819146012783214600D787D145B
:10125000600878FA146003753800C3E53898401DBB
:10126000120D5F12076C153875370078998664C2C5
:10127000AF120D0ED2AF7898866412077C120774F5
:10128000E5237002015EC3E5549401500AC3E552A0
:101290009401501602123712077CE52370030210E6
:1012A0005E75520075530002144CC3E552940170F0
:1012B00017C2AF120D5F78998664120CFC7898867D
:1012C00064D2AF12077C813EC3E55294027017C20C
:1012D000AF120D5F78998664120D0278988664D2F9
:1012E000AF12077C813EC3E55294037017C2AF1260
:1012F0000D5F78998664120D0878988664D2AF12D3
:10130000077C813EC3E55294047017C2AF120D5F93
:1013100078998664120D0E78988664D2AF12077C95
:10132000813EC3E55294057017C2AF120D5F7899E4
:101330008664120D0E78988664D2AF12077C813EC7
:10134000C3E55294077019C3E553940650024186D1
:101350007401303A0274037888F6C238C239813E8B
:10136000C3E55294087019C3E553940650024186B0
:101370007402303A0274047888F6D238D239813E49
:10138000C3E55294097017C3E55394065002418691
:10139000303A0BC37888E69402F6C23A813EC3E540
:1013A00052940A7016C3E553940650024186203ABF
:1013B0000A7888E62402F6D23A813EC3E5529414B4
:1013C0007025C3E553940650024186C2AF901A0BB4
:1013D000740093D2AF7888F613C238C2394002D273
:1013E000384002D2398057C3E55294157038C3E5AE
:1013F000539406404FC2AF901A0B740093D2AFF8CB
:10140000B801027402B802027401B803027404B88D
:10141000040274037888F613C238C2394002D23805
:101420004002D2398018C3E552940C70117567A53B
:101430007568F1C3E5539406400AD136D2AF7552B0
:10144000007553007567007568004186C2AF120DC4
:101450005FE4D2AFE4F55EF524F525F53D755E0851
:1014600012076C1207D530EDFDA8BDA9BEE97001C9
:10147000F8885F1207D9755E08C2AF120840855D13
:101480005B855D5CD2AF75A71075C13075A700751F
:10149000A903756601303A07C238303502D238D216
:1014A00028753900120CB7120CDA12084F120856C0
:1014B00012084F12085612084F120AE5120BE312D7
:1014C0000C2B120856120AD5202C0312078F302C31
:1014D000031207BF120BE3120C4E120856120AE554
:1014E000120BE3120C71120856120AD5120BE312FA
:1014F0000C94120856120AE5120BE3120CB71208EC
:10150000561207D5120AD5120BE3120CDA1207D9BC
:10151000120856302827855D5B79187A0CC3E539A7
:1015200099400EC228D2298A3B855D5B855D5C802F
:101530000CC3E554940140030214B9A1C330291F20
:10154000202B1CE53B147006C229D22A81B9F53B39
:10155000203A07C3E554940140030214B98064752E
:101560003C00203A0F78FA79A4E760027803C3E5DB
:101570005598504FE523604B303A172038052035F9
:1015800007800F303502800A202B07D22B855D5B48
:1015900081E978F0302B05855D5B7820C3E54898BC
:1015A00050030214B9302B1BC22BC238303502D283
:1015B00038D229753B12855D5B81B9053CE55460E5
:1015C00002A1C6753C00C2AF120D5F752500D2AFF7
:1015D00012077C120D5F75240078A4E66006C291A4
:1015E000C293C295C3E53C94044002015E412C9035
:1015F0001A0D7820D16FE520B4550AA3D16FE520EC
:10160000B4AA0280137567A57568F1120D6FD13603
:10161000756700756800801D901A0378807B0AD179
:101620006FA308DBFA901A0F788C7B1AD16FA3088E
:10163000DBFA901A2922C2AFD1B2D18F901A00746E
:1016400010D174A37447D174A37421D174901A0378
:1016500078807B0AD173A308DBFA901A0F788C7B11
:101660001AD173A308DBFAD1C5D1A3901A2922E4B9
:1016700093F622E6438F01538FFDFFC3E583941C4D
:10168000400122EF8567B78568B7F0538FFE22438C
:101690008F02438F018567B78568B7901A0DF053A5
:1016A0008FFC22901A0D7455D174901A0E74AAD121
:1016B00074227A3079D07820901A40D16FE520F7E3
:1016C00009A3DAF7227A3079D0901A40E7D1740969
:1016D000A3DAF9227C05120780DCFB22C2AF120CD0
:1016E000FC120D02120D08120D0E120774120CFCE2
:1016F000120D02120D08120D0E120774120CFC12BC
:101700000D02120D08120D0ED2AF22C2AF120D0E35
:10171000120D08120D02120CFC120774120D0E129B
:101720000D08120D02120CFC120774120D0E120D90
:0A17300008120D02120CFCD2AF22C9
:1019FD00020FEE104721FFFFFFFFFFFF09FF01FF61
:101A0D0055AA01FFFFFFFFFF03FFFFFF25D0285061
:0D1A1D0004FF02FF7AFF0701FFFF0000FF3A
:101A4000234F5F485F373023202020202020202094
:101A500023424C48454C492445464D3842323123B7
:101A60002020202020202020202020202020202076
:101C0000C2AFC2D37597DE7597AD7581C075A90057
:101C100043FF80752438752503B1DB7529A5752A26
:101C2000F143F12053A4DFD28575D4FF75E3407DE5
:101C3000FA780379E67C10752200752300901DE880
:101C40007B0675249875250130850281482085081A
:101C5000D8FBD9F9DCF781BA308508D8FBD9F9DC93
:101C6000F781BAB19BE493A3C39A6004DDC381BA40
:101C7000DBDBB18D600281317B08E493FAA3B16EA6
:101C8000DBF87A30B16E752200752300B18DEAFC65
:101C9000EBFDC3ED94FE400EB18D8A278B28ED300D
:101CA000E0048A828B83B18D7AC270D8C3ED94FE32
:101CB000601950CEBD0029EC600F7520007521FF22
:101CC000752900752A000200008100A827A92808AC
:101CD00009D804D90281DDB191EAF281D10D81A642
:101CE000C3ED94035051EDA2E092007AC5C3E582A2
:101CF0009400E583941C508C200010438F02438F86
:101D0000018529B7852AB7F0300027A827A9280818
:101D100009438F01538FFDD804D902A132C3E58353
:101D2000941C4003A3A117E28529B7852AB7F0A325
:101D3000A117538FFC81827AC1BD030CE493A3FAEF
:101D4000B152DCF8B14A81828184AA22AB23B16E00
:101D5000EBFAEA6222752608C3E52313F523E52290
:101D600013F52250066323A0632201D526EAB1DBD6
:101D7000B1DB75260AEAF4200102D285300102C2E5
:101D800085B1DBC3134002C201D526EB22B191EA33
:101D9000FB208502A191308502A196752608AE240C
:101DA000AF25C3EF13FFEE13FEB1DFB1DBC3EA13C0
:101DB0003085024480FA30E703632201C3E5231330
:101DC000F523E52213F52250066323A0632201D5F3
:101DD00026D9E52265236523F52222AE24AF250E00
:101DE0000FDEFEDFFCD20122424C48656C693437BD
:061DF0003164E8B20601B7
:00000001FF
